:020000020000FC
:100000009895112705E0011F010FDC962323227329
:10001000C594D7F7CDF7C7F3E595F89424F882F7A0
:10002000B0F794F390F30E9407000E94070068F372
:1000300061F35CF7C7988894D894F894A894C8940E
:10004000E894B894989400950117010707310113BB
:100050000A9503950127019F01020103090381030A
:1000600089030995099496B30C9404000C94040038
:100070000C910D910E91088109910A910A850091C8
:10008000FF00009100000081019102910285C89556
:1000900054905590000F0695012F4F2E0F014701E8
:1000A000A1940000012B0560C0BACF90CF92ACDFC5
:1000B00008951895A9CFFF1CF794F00A0A40E09A1A
:1000C000E099E09B0197146F07FC07FE0894E89500
:1000D000E8950C930D930E93088309930A930D836F
:1000E000008301930293058320921000011B0456A4
:0600F00002950023A89513
:00000001FF
